:1000000000080020410200006907000069070000A5
:100010006907000069070000690700000000000090
:100020000000000000000000000000006907000060
:100030006907000000000000690700006907000070
:100040006907000069070000DD0000006907000083
:100050006907000000000000690700006907000050
:1000600069070000690700006907000069070000D0
:1000700069070000690700006907000069070000C0
:10008000690700007D0100006907000069070000A2
:1000900069070000690700006907000069070000A0
:1000A0006907000069070000F02810D2032102460A
:1000B0008A43094951180CD08007C00EC0228240E3
:1000C000FF2383400868984310430860704700F09E
:1000D000B1F800F021F9C04600E400E0B0B50C48EA
:1000E0000168002913D00B49096880230A4AD45CAF
:1000F0008125555D641BE4B2802C06D0D45C641C61
:10010000D454D35C7F241C40115500210160B0BD44
:100110000821004018250040200800208108064AD8
:10012000891807D08007400F032282400878904347
:100130000870704700F0F0F8A40800208208064B11
:10014000D21806D08007400F814010780843107005
:10015000704700F0E1F8C046A40800208108064A74
:10016000891806D009788007400FC1400320084055
:10017000704700F0D1F8C046A40800200120010417
:10018000034A1160034900220A600349087070475E
:1001900008130140401101401008002070B51948B3
:1001A000012404701848047018481949091A89096B
:1001B00003E000220270491E401C0029F9D11548B5
:1001C000154941621821C160192141610426066068
:1001D000124884600460124806600220FFF764FF42
:1001E000104D2E6010480460104801680029FCD0B2
:1001F000002101600E4804601120FFF755FF6004E4
:10020000286070BD0008002008080020A408002015
:10021000004000200025004000E0D7010020004001
:100220000423004000E100E0080000400401004019
:10023000001001400148122100F0A6F8B0070000AC
:1002400080B500F037FA00F06DF8FFF7A7FF00F077
:10025000BDF8D4D4F0B583B0009102462C4B4EE0EB
:10026000002A51D029480146181A80090C180F3469
:100270000F21284800780028019101D020468843AA
:10028000116899423AD2814238D30292081A06097B
:10029000771C350110357F1E3846FFF75FFF103D94
:1002A000C0B20228F7D03846FFF758FFC0B2032883
:1002B000029A174B22D003213846FFF73FFF304602
:1002C000FFF74CFFC0B2012800D1761C3701103F68
:1002D0003046FFF743FF1037761CC0B20228F7D034
:1002E0000C480078002801D1044601E001988443BD
:1002F0006019E119FFF7AEFF029A054B121D009835
:100300008242ADD103B0F0BD00F006F8A408002091
:1003100000400020080800200148172100F034F8B0
:10032000D007000009480A4901E0002204C08142C8
:10033000FBD108480849094A03E0002904D008C94C
:1003400008C08242F9D17047FFF7E6FF000800209D
:10035000A408002000080020400800000008002039
:1003600070B50022064B074C07E0855C00261E6036
:1003700025601D68002DFCD0521C8A42F5DB70BD43
:100380001C2100401C2500400C4605460C48162147
:10039000FFF7E6FF28462146FFF7E2FF0948002263
:1003A000026009490D230B600368002BFCD002603A
:1003B0000A220A6001680029FCD030BFFDE7C04670
:1003C000F00700001C2100401C25004088B0A24915
:1003D000A2480861A24A0A60072043034B60A14873
:1003E00000240460029444620A6001934B6002247A
:1003F000012007909C4D68460590A24AAA4F03949D
:10040000DDE04000091800D11FE10A780120034611
:100410009340914A1360491C00D116E10978884045
:10042000506095E09348006800210691044603E07F
:10043000904800682C46934A84424AD10698C0B23C
:10044000002844D0012800D001E18B488B49FFF7F8
:1004500001FF05988A49FFF7FDFE00273D461FE092
:100460002846FFF77BFEC0B203280BD0022802D03B
:10047000012802D013E0F80710D02846FFF74EFEFF
:10048000079F0CE0A8088049401800D1DDE0A907CB
:10049000490F02228A4001789143017000276D1CA8
:1004A0007A48007800280CD00F20C043754A1146C6
:1004B0000140754BD21A92099A180F320240881ADD
:1004C00000098542CCD3022006906E4A01E001204B
:1004D00006900F266C480146101A80090F180F3736
:1004E0006A480078002805D0F043114601403840A2
:1004F000081A0009844200D100242046FFF72EFE8E
:10050000651C000694D15B48056001212046FFF779
:1005100015FE04E002212846FFF710FE6D1C554829
:1005200000688542F6D1200159490978002901D097
:10053000B743C0194C4F3D465B4F002102E00022FB
:100540004254491C0829FAD12021524A02604160D4
:10055000514802992CE0454A1268504B1C461B68D2
:100560002260D31A2E462B404D4A154614680022AD
:10057000E3182B606B6853416B60384B1033494C68
:1005800023603A700346494C2340012B01D01C469E
:1005900000E00224354F3D682C1935463440FC6399
:1005A000414F00E030BF3C78002CFBD0C01A914195
:1005B00002460A43002ACED12749324A049C886861
:1005C000800304D4039B180603D0581E0BE0039845
:1005D00009E0E0B2002801D1044600E0641E0028D2
:1005E00000D0012080008968490119D4C1B20329D3
:1005F00001D8401C14E0E2B200232E46042A02D3A4
:100600001D461A4601E01D4601220B1F5942594161
:100610001140002900D1054664181A4A284635467B
:100620000390C0B20428049400D9FBE6E1B2052986
:1006300000D3F7E6084A0A4B1360019B53600A2275
:100640004A430B49891800D0DBE6FFF765FE1848DE
:100650000D21FFF799FEC04608050050F0FF00008D
:10066000F01F000044070050FFFFFF000415014089
:10067000700700000408002000080020A4080020E3
:100680000008002000400020A408002000080020EE
:100690000808002020080000EB0B00000C080020D8
:1006A000180800200413014010080020FFFF7F00FD
:1006B000A207000025480178012917D10279120705
:1006C00014D18368F0221A40302A03D0102A01D0B6
:1006D000002A0BD1027B1206120F07D11C491D4ABA
:1006E0000A600121C9031C4A1160017801290FD158
:1006F000027912070CD18268F0231340402B07D1F6
:10070000027B1206120F03D1144901220A600178FC
:1007100001290DD1017909070AD18268F021114020
:10072000D02901D0A02903D1007B0006000F00D002
:1007300070470B480168012904D00A49016001682B
:100740000129FCD1C02141617047C046E00F00F093
:1007500004050040DFFF07C0186C00400806004099
:1007600000EC06407593000020BFFDE7D4D4D4D43C
:100770000D040E070D050E080D060F070F080F09D3
:100780000F0A0F0B0E050D0C0E060F0C0E040D0BB1
:100790000D0A0D090D080D070F060E0A0F040E09AC
:1007A0000F056F7574206F66206D656D6F7279002F
:1007B000696E646578206F7574206F662072616E53
:1007C000676500000000000000000000000000005D
:1007D0006E696C20706F696E7465722064657265F5
:1007E000666572656E636500000000000000000031
:1007F00070616E69633A2072756E74696D6520650B
:1008000072726F723A20D4D4D4D4D4D4D4D4D4D481
:10081000D4D4D4D4D4D4D4D4D4D4D4D4D4D4D4D498
:10082000496E76616C6964204C4544206D61747238
:10083000697820726F77206F7220636F6C756D6EB0
:00000001FF
